:02000004085F93
:1050000000505F08FCFF5F08000006002300050158
:08501000040138180000000043
:105018001348144908B5884205D0134A824202D081
:10502800124B121A98471248124A0021124B121AB0
:10503800984712481249884205D0124A824202D043
:105048000A4B121A984710481049884205D0104A4E
:10505800824202D0054B121A9847014808BD00BF8A
:10506800ECA2071050F85F0870A607102D0D11105C
:1050780070A60710FCAF0710A10E111050583F0280
:10508800B0505F0858583F0260583F02B8505F0858
:0C509800F8FF3F0219505F080000000004
:0850A400D012E07901000000C8
:0850B0009C505F08F8E53F0287
:1050B80081F0004102E000BF83F0004330B54FEAC1
:1050C80041044FEA430594EA050F08BF90EA020F2E
:1050D8001FBF54EA000C55EA020C7FEA645C7FEAC1
:1050E800655C00F0E2804FEA5454D4EB5555B8BFE4
:1050F8006D420CDD2C4480EA020281EA030382EA55
:10510800000083EA010180EA020281EA0303362DE6
:1051180088BF30BD11F0004F4FEA01314FF4801CB9
:105128004CEA113102D0404261EB410113F0004FCB
:105138004FEA03334CEA133302D0524263EB430382
:1051480094EA050F00F0A780A4F10104D5F1200E20
:105158000DDB02FA0EFC22FA05F2801841F100017B
:1051680003FA0EF2801843FA05F359410EE0A5F14F
:1051780020050EF1200E012A03FA0EFC28BF4CF080
:10518800020C43FA05F3C01851EBE37101F0004536
:1051980007D54FF0000EDCF1000C7EEB00006EEB43
:1051A8000101B1F5801F1BD3B1F5001F0CD34908CD
:1051B8005FEA30004FEA3C0C04F101044FEA445224
:1051C80012F5800F80F09A80BCF1004F08BF5FEAAB
:1051D800500C50F1000041EB045141EA050130BD8B
:1051E8005FEA4C0C404141EB0101013C28BFB1F59D
:1051F800801FE9D291F0000F04BF01460020B1FAE8
:1052080081F308BF2033A3F10B03B3F120020CDABA
:105218000C3208DD02F1140CC2F10C0201FA0CF098
:1052280021FA02F10CE002F11402D8BFC2F1200CFD
:1052380001FA02F120FA0CFCDCBF41EA0C019040B3
:10524800E41AA2BF01EB0451294330BD6FEA0404FC
:105258001F3C1CDA0C340EDC04F11404C4F12002E7
:1052680020FA04F001FA02F340EA030021FA04F3F9
:1052780045EA030130BDC4F10C04C4F1200220FA50
:1052880002F001FA04F340EA0300294630BD21FA8E
:1052980004F0294630BD94F0000F83F4801306BF54
:1052A80081F480110134013D4EE77FEA645C18BF48
:1052B8007FEA655C29D094EA050F08BF90EA020FDF
:1052C80005D054EA000C04BF1946104630BD91EAD7
:1052D800030F1EBF0021002030BD5FEA545C05D1DA
:1052E8004000494128BF41F0004130BD14F5800419
:1052F8003CBF01F5801130BD01F0004545F0FE418D
:1053080041F470014FF0000030BD7FEA645C1ABFC1
:10531800194610467FEA655C1CBF0B46024650EAF8
:10532800013406BF52EA033591EA030F41F4002124
:1053380030BD00BF90F0000F04BF0021704730B5AA
:105348004FF4806404F132044FF000054FF000017F
:1053580050E700BF90F0000F04BF0021704730B540
:105368004FF4806404F1320410F0004548BF404215
:105378004FF000013EE700BF42004FEAE2014FEA6A
:1053880031014FEA02701FBF12F07F4393F07F4F45
:1053980081F06051704732F07F4208BF704793F048
:1053A8007F4F04BF41F40021704730B54FF460745B
:1053B80001F0004521F000411CE700BF50EA01025E
:1053C80008BF704730B54FF000050AE050EA010207
:1053D80008BF704730B511F0004502D5404261EB77
:1053E80041014FF4806404F132045FEA915C3FF4B8
:1053F800D8AE4FF003025FEADC0C18BF03325FEA55
:10540800DC0C18BF033202EBDC02C2F1200300FA05
:1054180003FC20FA02F001FA03FE40EA0E0021FA2A
:1054280002F11444BDE600BF70B54FF0FF0C4CF418
:10543800E06C1CEA11541DBF1CEA135594EA0C0FCA
:1054480095EA0C0F00F0DEF82C4481EA030621EA05
:105458004C5123EA4C5350EA013518BF52EA033540
:1054680041F4801143F4801338D0A0FB02CE4FF0F2
:105478000005E1FB02E506F00042E0FB03E54FF022
:105488000006E1FB03569CF0000F18BF4EF0010E1A
:10549800A4F1FF04B6F5007F64F5407404D25FEA16
:1054A8004E0E6D4146EB060642EAC62141EA5551C9
:1054B8004FEAC52040EA5E504FEACE2EB4F1FD0C0B
:1054C80088BFBCF5E06F1ED8BEF1004F08BF5FEA89
:1054D800500E50F1000041EB045170BD06F000463B
:1054E80046EA010140EA020081EA0301B4EB5C04E8
:1054F800C2BFD4EB0C0541EA045170BD41F48011E0
:105508004FF0000E013C00F3AB8014F1360FDEBF04
:10551800002001F0004170BDC4F10004203C35DAE0
:105528000C341BDC04F11404C4F1200500FA05F363
:1055380020FA04F001FA05F240EA020001F0004204
:1055480021F0004110EBD37021FA04F642EB06017A
:105558005EEA430E08BF20EAD37070BDC4F10C04A4
:10556800C4F1200500FA04F320FA05F001FA04F268
:1055780040EA020001F0004110EBD37041F1000154
:105588005EEA430E08BF20EAD37070BDC4F120055F
:1055980000FA05F24EEA020E20FA04F301FA05F2C7
:1055A80043EA020321FA04F001F0004121FA04F26F
:1055B80020EA020000EBD3705EEA430E08BF20EA3F
:1055C800D37070BD94F0000F0FD101F00046400079
:1055D80041EB010111F4801F08BF013CF7D041EAFB
:1055E800060195F0000F18BF704703F000465200FF
:1055F80043EB030313F4801F08BF013DF7D043EAD0
:105608000603704794EA0C0F0CEA135518BF95EA85
:105618000C0F0CD050EA410618BF52EA4306D1D10C
:1056280081EA030101F000414FF0000070BD50EA2B
:10563800410606BF1046194652EA430619D094EAB5
:105648000C0F02D150EA013613D195EA0C0F05D19F
:1056580052EA03361CBF104619460AD181EA0301F3
:1056680001F0004141F0FE4141F470014FF00000AB
:1056780070BD41F0FE4141F4780170BD70B54FF046
:10568800FF0C4CF4E06C1CEA11541DBF1CEA1355C6
:1056980094EA0C0F95EA0C0F00F0A7F8A4EB0504A8
:1056A80081EA030E52EA03354FEA013100F088809F
:1056B8004FEA03334FF0805545EA131343EA126368
:1056C8004FEA022245EA111545EA10654FEA00261D
:1056D8000EF000419D4208BF964244F1FD0404F5D6
:1056E800407402D25B084FEA3202B61A65EB030532
:1056F8005B084FEA32024FF480104FF4002CB6EBEF
:10570800020E75EB030E22BFB61A754640EA0C006E
:105718005B084FEA3202B6EB020E75EB030E22BFAE
:10572800B61A754640EA5C005B084FEA3202B6EBEF
:10573800020E75EB030E22BFB61A754640EA9C00AE
:105748005B084FEA3202B6EB020E75EB030E22BF7E
:10575800B61A754640EADC0055EA060E18D04FEA3C
:10576800051545EA16754FEA06164FEAC30343EADC
:1057780052734FEAC2025FEA1C1CC0D111F4801FA9
:105788000BD141EA00014FF000004FF0004CB6E7A2
:1057980011F4801F04BF01430020B4F1FD0C88BF41
:1057A800BCF5E06F3FF6AFAEB5EB030C04BFB6EB4C
:1057B800020C5FEA500C50F1000041EB045170BD3F
:1057C8000EF0004E4EEA113114EB5C04C2BFD4EB6C
:1057D8000C0541EA045170BD41F480114FF0000EF0
:1057E800013C90E645EA060E8DE60CEA135594EA6C
:1057F8000C0F08BF95EA0C0F3FF43BAF94EA0C0F6F
:105808000AD150EA01347FF434AF95EA0C0F7FF4E3
:1058180025AF104619462CE795EA0C0F06D152EA37
:1058280003353FF4FDAE1046194622E750EA41061B
:1058380018BF52EA43067FF4C5AE50EA41047FF42C
:105848000DAF52EA43057FF4EBAE12E74FF0FF3C91
:1058580006E000BF4FF0010C02E000BF4FF0010C62
:105868004DF804CD4FEA410C7FEA6C5C4FEA430CDB
:1058780018BF7FEA6C5C1BD001B050EA410C0CBF2A
:1058880052EA430C91EA030F02BF90EA020F00208C
:10589800704710F1000F91EA030F58BF994208BFF3
:1058A80090422CBFD8176FEAE37040F001007047B0
:1058B8004FEA410C7FEA6C5C02D150EA013C07D107
:1058C8004FEA430C7FEA6C5CD6D152EA033CD3D052
:1058D8005DF8040B704700BF8446104662468C464C
:1058E8001946634600E000BF01B5FFF7B7FF00287F
:1058F80048BF10F1000F01BD4DF808EDFFF7F4FFA8
:105908000CBF012000205DF808FB00BF4DF808ED32
:10591800FFF7EAFF34BF012000205DF808FB00BF55
:105928004DF808EDFFF7E0FF94BF012000205DF877
:1059380008FB00BF4DF808EDFFF7CEFF94BF01202C
:1059480000205DF808FB00BF4DF808EDFFF7C4FF25
:1059580034BF012000205DF808FB00BF4FEA410C6E
:105968007FEA6C5C02D150EA013C0AD14FEA430C51
:105978007FEA6C5C02D152EA033C02D14FF000008E
:1059880070474FF0010070474FEA410212F50012CC
:1059980015D211D56FF47873B3EB625212D94FEA6E
:1059A800C12343F0004343EA505311F0004F23FA58
:1059B80002F018BF404270474FF00000704750EAAD
:1059C800013005D111F0004008BF6FF0004070476A
:1059D8004FF00000704700BF4A0011D212F50012C4
:1059E80011D20DD56FF47873B3EB62520ED44FEA2F
:1059F800C12343F0004343EA505323FA02F07047AF
:105A08004FF00000704750EA013002D14FF0FF30EC
:105A180070474FF0000070474FEA4102B2F1E0438F
:105A280024BFB3F5001CDCF1FE5C0DD901F0004C7D
:105A38004FEAC0024CEA5070B2F1004F40EB8300CD
:105A480008BF20F00100704711F0804F21D113F1F9
:105A58003872BCBF01F00040704741F480114FEA32
:105A68005252C2F11802C2F1200C10FA0CF320FABB
:105A780002F018BF40F001004FEAC1234FEAD323D8
:105A880003FA0CFC40EA0C0023FA02F34FEA430342
:105A9800CCE77FEA625307D150EA01331EBF4FF0CB
:105AA800FE4040F44000704701F0004040F0FE40E6
:105AB80040F40000704700BF7BB972B90029BEBF2F
:105AC80000204FF0004106E008BF00281CBF6FF01F
:105AD80000414FF0FF3000F0EBB9ADF1080C6DE973
:105AE80004CE002909DB002B1ADB00F06BF8DDF887
:105AF80004E0DDE9022304B07047404261EB410154
:105B0800002B1BDB00F05EF8DDF804E0DDE9022382
:105B180004B0404261EB4101524263EB43037047DA
:105B2800524263EB430300F04DF8DDF804E0DDE991
:105B3800022304B0404261EB41017047524263EBDB
:105B4800430300F03FF8DDF804E0DDE9022304B088
:105B5800524263EB4303704738B5002200230446E2
:105B68000D46FFF7D3FE28B920462946BDE8384040
:105B780000F00AB8204605F1004100F005F840425F
:105B880061EB410138BD00BFD0B500220B4B064682
:105B98000F46FFF749FCFFF71FFF0446FFF7CAFB54
:105BA8000022074BFFF740FC02460B4630463946B9
:105BB800FFF782FAFFF710FF2146D0BD0000F03D45
:105BC8000000F0412DE9F04F099D04460F46002BD7
:105BD80048D18A42944661D9B2FA82F343B1C3F1FB
:105BE80020019F4002FA03FC9C4020FA01F10F4378
:105BF8004FEA1C411FFA8CFE220CB7FBF1F601FBA1
:105C0800167706FB0EF042EA0742904208D91CEBD1
:105C1800020206F1FF3702D2904200F237813E4677
:105C2800121AA4B2B2FBF1F001FB102200FB0EFE27
:105C380044EA0244A64508D91CEB040400F1FF32EB
:105C480002D2A64500F21C81104640EA0640A4EBA9
:105C58000E0400261DB1DC400023C5E9004331468F
:105C6800BDE8F08F8B4209D9002D00F0FD80002699
:105C7800C5E9000130463146BDE8F08FB3FA83F636
:105C8800002E4BD18B42C0F0F280824240F2EF806E
:105C98003046002DE3D0C5E90047E0E702B9FFDE52
:105CA800B2FA82F3002B40F09D80891A4FEA124E17
:105CB80097B20126200CB1FBFEF20EFB121140EA4E
:105CC800014107FB02F088420FD91CEB010102F1E8
:105CD800FF382CBF4FF001094FF00009884203D963
:105CE800B9F1000F00F0CF804246091AA4B2B1FB07
:105CF800FEF00EFB101100FB07F744EA0144A7422F
:105D080008D91CEB040400F1FF3102D2A74200F2CB
:105D1800B4800846E41B40EA02409BE7C6F120072E
:105D2800B34001FA06F422FA07FCF940B2404CEA03
:105D3800030C20FA07F34FEA1C491C431FFA8CFE98
:105D480000FA06F3200CB1FBF9F809FB181140EA38
:105D5800014108FB0EF088420FD91CEB010108F144
:105D6800FF3A2CBF4FF0010B4FF0000B884203D9CC
:105D7800BBF1000F00F08D80D046091AA4B2B1FB28
:105D8800F9F009FB101100FB0EFE44EA01418E45B3
:105D980007D91CEB010100F1FF3401D28E457FD8F1
:105DA800204640EA0840A1EB0E01A0FB02984145BD
:105DB8004C46C64602D306D14B4504D20138B9EB4E
:105DC800020468EB0C0E002D70D01A1B61EB0E015B
:105DD80022FA06F301FA07F7F14000261F43C5E946
:105DE80000713CE702FA03FCC3F1200001FA03F258
:105DF80021FA00F64FEA1C4E24FA00F11FFA8CF73C
:105E08009C401143B6FBFEF00A0C0EFB106642EAFA
:105E1800064200FB07F696420ED91CEB020200F17F
:105E2800FF382CBF4FF001094FF00009964202D904
:105E3800B9F1000F31D04046921B89B2B2FBFEF691
:105E48000EFB162241EA024106FB07F28A4207D9F5
:105E58001CEB010106F1FF3801D28A4223D84646DD
:105E6800891A46EA004625E72E462846F7E6841AA8
:105E780061EB030301201F460BE76444023849E73E
:105E880064440238E1E6023A61442EE7023E624485
:105E9800C6E6A8F1020861446FE702386244CBE71E
:105EA800023861447DE7023E6144D9E72E46D6E6D2
:105EB800704700BF10F8012B11F8013B012A28BFD9
:105EC8009A42F7D0D01A7047034613F8012B002ADC
:105ED800FBD1181A0138704770B505F0B7FD0025D9
:105EE800054E064CA41BA408AC4200D170BD56F860
:105EF800043B98470135F7E7C4FF3F02F8FF3F022C
:105F080000F01EBD08B501F0EDFBBDE8084005F046
:105F180055BD03F03BBD03F039BD03F045BD03F0AB
:105F280043BD03F041BD00000C2008B5024A0349F7
:105F380003F0DCFBFEE700BF759A3F0208E63F026C
:105F48000078B0FA80F04009704701230370704769
:105F58000388426840884968584300B97047F2ECA2
:105F6800017A67EE807A0138E1EC017AF5E72DE9EC
:105F7800F04F0C4616464FF0000B1D688BB0DDE95C
:105F88001478DDE9199A1DB928460BB0BDE8F08FE1
:105F980001230993236938460893E368189A0793FD
:105FA800D9F80C3016990693D8F80030013D0593BE
:105FB8007368049333680393A368CDE901B3236836
:105FC8000093534600F009F8D8F800301F44D9F878
:105FD8000C309A44D7E7002070472DE9F04F95B070
:105FE80007910F93DDE9233101EBD17149100A9133
:105FF8001E99002B09B2C1EA014B1946B8BFD91C3A
:1060080081468810019058000990229821F0030ACF
:1060180022990028C1F10001C8BF00210491012183
:106028000498079E81400139059149100691013174
:106038000B91279949000891079901EB0A0509EB8B
:106048000A010E910F99029100210391C9F10001F3
:106058001391229921EAE171119103990A988142D9
:106068004DDB089D20EAE070099C0799454300FB39
:106078000411249C2846E4073DD502B112688C46D9
:10608800019C002C40F0DB800E9E5144AAEB0605D3
:106098007719BB4200F3E780229B4FF0804123EA47
:1060A800E3739A400023219CC2FB0413229A1D46E5
:1060B800002ADCBF524201920122CB0F0199019CB8
:1060C8008A4043EA4503013A53FA04F403EA020119
:1060D8004FEA620248BF0132209B9142C8BF013497
:1060E8001C44259B9C42B8BF1C46269B9C42A8BFCB
:1060F8001C460F9B1C54002015B0BDE8F08F002AE9
:106108006AD0174657F8080B51683A46F7180D97A2
:10611800099FDDF804E0F7191297CDF83090BEF129
:10612800000F5CD105EB030CE6460E9F139C3E194D
:10613800B34277DC4FF080460025119CA040219C9B
:10614800C0FB0465059CF00F40EA450000EA040521
:10615800049C069E20410B9C48BF2646119CB542D4
:1061680001FA04F64FF000054FF08041219CC8BFAA
:106178000130C6FB0415059CC90F41EA450101EA37
:106188000405049C069E21410B9C48BF2646209C82
:10619800B542C8BF013120442144259C129EA0422B
:1061A800B8BF2046A142B8BF2146269C03EB0C0588
:1061B800A042A8BF2046029C207026988142A8BF12
:1061C80001462046279C0155014608980144029142
:1061D80003990131039140E71146104696E70C9C5C
:1061E80054F8047B0C942BFA97F456F804CB1094CB
:1061F8002BFA87F72FFA9CF82FFA8CFC28FB04005F
:106208002CFB07000D9C54F804CB0D942FFA9CF836
:10621800109C2FFA8CFC28FB04112CFB07110EF1A3
:10622800FF3E7CE717F9016B1E9C15F9018B26448C
:1062380006FB08001EF9018B06FB081176E759F8E2
:10624800046B2BFA96FE5CF8045B2BFA86F62FFAA1
:1062580095F72FFA85F527FB0E2225FB0622019CD0
:10626800013C01940CE716F9017B1E9C11F901CB46
:10627800274407FB0C220BE77047000008B51346BC
:106288008A00044901EB8001184605F0B7FD00209B
:1062980008BD00BF7CA6071008B528B95A21064BCF
:1062A800064A074803F0E2FB30F8023CC01ABDE892
:1062B800084001F049BC00BF2DF13F0233E63F0220
:1062C8005CE63F02431E034210B5044605D0372161
:1062D8000C4B0D4A0D4803F0C9FB10B900242046A9
:1062E80010BD0029FAD0481C2044012101F02AFCE5
:1062F8000028F3D0631C034464421C40201A24F88D
:10630800020CECE7D2E63F02EDE63F025CE63F0214
:106318001FB54268B2F5803F17D28368B3F5803F56
:1063280013D2016892B29BB201910391684602A907
:10633800ADF80020ADF80230ADF80820ADF80A300D
:10634800FFF706FE05B05DF804FB0148FAE700BF59
:106358000CFCFFFF2DE9F041884617461E4685696B
:10636800044601F013FBC8E9000114486B6898471C
:10637800014630B1124801F00FFB6FF00500BDE88F
:10638800F08139462B699847A8B931466B69A07ADC
:10639800984780B994F90930012B01D00020EEE725
:1063A8006B690799207B984728B96B690699E07A49
:1063B80098470028F2D06FF00200E0E7756A3F02C4
:1063C80022E73F02012A02D1016000207047022A19
:1063D80004BF0B680360F8E7012A02D101600020BE
:1063E8007047022A04BF0B680360F8E730B40D4613
:1063F800114604681A682868234630BC096818479B
:10640800012A02D1016000207047022A04BF0B68EC
:106418000360F8E7036808681847000010B50446E9
:10642800094B036004F0B4F8214604F0FDFA05F0C6
:106438003BFA05F02BFA2046044B40F8043B04F0E5
:106448007DF9204610BD00BF10EC3F02F8EB3F027B
:1064580010B50446FFF7E2FF20462421FFF75FFD51
:10646800204610BD10B58368044613B103220146C7
:106478009847204610BD70B504460E46154633B100
:10648800036000232046C4E90165237370BD02FB45
:1064980001F00121800001F055FB01232060F1E7A4
:1064A80010B50446006818B1237B0BB101F04CFB12
:1064B800204610BD2DE9F84389460446A0B10025C1
:1064C8001427C668F36DAB4212D923690BB153F890
:1064D8002530326E494607FB05222046D2E9038261
:1064E800C04718B90135EDE76FF00A00BDE8F88339
:1064F8000020FBE72DE9F047002480469E4625460C
:1065080022466FF07F0C744570D0D8F80030D3E97C
:10651800010606FB0022087803283BD0092813D07F
:10652800012858D128460027D3E901567543BD42B2
:1065380059D91D6805EB87052E684D68013705EBAD
:1065480080052E600130EFE74FF00009D3E90167BD
:106558007E434E4505EB090045D91E6891ED037A47
:1065680006EB8906D6ED006AC6EE877AF8FE677AEA
:10657800FDEEE77A17EE90AA0E694F68B2445646C8
:106588007F2EA8BF7F266645B8BF664609F1010978
:106598003E54DBE74FF00009D3E901677E434E45DF
:1065A80005EB09001FD91E6891ED037A06EB8906F1
:1065B800D6ED006AC6EE877AF8FE677AFDEEE77ACE
:1065C80017EE90AA0E694F68B2448AF308063E5443
:1065D80009F10109E0E701460B4801F0DDF96FF028
:1065E8000C00BDE8F087054601348CE78969B2EBF9
:1065F800910F07D0914205D0044801F0CDF96FF012
:106608001700EEE70020ECE752E73F0276E73F028B
:1066180038B50C46D1E9012301785A43032932D011
:10662800092916D0012948D18169B2EB910F09D007
:106638000029B8BF03318910234801F0ADF96FF084
:10664800170005E00A464168206805F0D7FB0020DE
:1066580038BD81699142EFD1002283699342F6D90E
:106668002368056903EB8201436890ED037A9B5622
:1066780001325B1B07EE903AF8EEE77A67EE877A0D
:10668800C1ED007AE9E781699142D5D10022836999
:106698009342DCD92368056903EB8201436890EDD6
:1066A800037A9B5C01325B1B07EE903AF8EEE77ABF
:1066B80067EE877AC1ED007AE9E7044801F06CF9E2
:1066C8006FF00D00C4E700BFC3E73F0205E83F02D3
:1066D8002DE9F84F2DED048B8B780546032B0F9F82
:1066E8009DF840604BD191F90930581E092843D8CC
:1066F800DFE800F005A60E1B0E2127273039524887
:1067080001F04AF96FF00900BDEC048BBDE8F88F81
:106718001178092900F0948001F0FD03012B00F0A5
:106728008F804A4801F038F9ECE70B7D002B00F028
:1067380087804748E4E70B7D002B00F081804548BF
:10674800DEE7117809297BD001F0FD03012B77D012
:106758004148E7E71178092972D001F0FD03012BC0
:106768006ED03E48DEE71178092969D001F0FD03B3
:10677800012B65D03A48D5E719463A48D2E7052BA8
:1067880001D10020C0E797F84040002CF9D11378D8
:10679800D2F80480092B22D0B0F87290324ADFF880
:1067A800CCA04C45EDD2B8EC018A4FEA840B6EB10F
:1067B8006B6F104653F8241001F0EEF8B0EE480A5B
:1067C80001F00AF9504601F0E7F8274A6B6F0134E7
:1067D80053F80B3008373B6087ED018AE1E7D2EDCB
:1067E800047A92ED039AF8EEE78ADFF87CB0DFF8D6
:1067F8007C90B5F87230A342C3D918F904304FEA37
:10680800840A08EE103AB8EEC88A38EE688A28EE8C
:10681800098A66B16B6F584653F8241001F0BCF82A
:10682800B0EE480A01F0D8F8484601F0B5F86B6FA9
:10683800013453F80A3008373B6087ED018AD8E7FE
:106848006FF0140060E700BF2AE83F026FE83F02DC
:10685800A4E83F02D5E83F0207E93F0239E93F02D1
:106868006DE93F02A1E93F02D4E93F0229EA3F026C
:106878002DE9F04399468B6985B09B6807460D461C
:1068880014460F9E9DF84080984748BB01F07EF85B
:10689800001B61EB09014FF47A720023C6E90C0171
:1068A800FFF70AF901463062B8F1000F02D00E482E
:1068B80001F072F80E9B294600933846DDE90C2357
:1068C800CDE90168FFF704FF044628B901F05CF838
:1068D800023008BF6FF00104204605B0BDE8F08320
:1068E8006FF00204F8E700BFD9E93F022DE9FF473E
:1068F80006468A46174698460025F36893F85420BA
:10690800AA4214D99C6D514604EB4514227ED4E961
:10691800029063692479CDE9020887F84040CDE9FF
:106928000027F0682A46C84730B90135E5E701F085
:106938002BF8831C18BF002004B0BDE8F0870000C6
:1069480038B5002002F012FD43F6982504460020D1
:1069580002F00CFD001B61F10001A84271F1000377
:1069680007D204F0A1FF04F094FF10B902F02EFF43
:10697800EDE704F099FF04F08CFF4FF4FA6003F0A0
:1069880091F8064801F008F802F08CF9BDE83840A3
:1069980044220021024805F058BA00BFF6E93F0238
:1069A8007CA6071070B51426D0E90053044606FBF0
:1069B8000356AE4204D0284604F066FD1435F8E7C5
:1069C800206802F0F1FF204670BD13B50369044644
:1069D8003BB1019383680BB905F056F9C36801A967
:1069E8009847002320462361FFF73CFD204602B06C
:1069F80010BD1FB501938368CDE902210BB905F0DD
:106A080043F9C46801AB02AA03A9A04704B010BDAA
:106A180010B50C462DED028B92ED038AD4E90132B4
:106A28005A43016923688A4228BF0A460021FFF7B2
:106A3800E0FFF7EE007AB4EE678AF1EE10FA08D0BC
:106A4800B0EE480ABDEC028B2046BDE81040FFF7C7
:106A58005FBC0020BDEC028B10BD00002DE9F04F9B
:106A68002DED028B06460F465069424985B0D2F893
:106A780008B0FFF71FFA002400280CBF4FF0010AE6
:106A88004FF0030A25469FED3C8ADFED3C8AD6F895
:106A980010803369A3426BD9B8F5806FC14628BF0F
:106AA8004FF4806900235A4649466846FFF7E3FCDD
:106AB800009B43B96846FFF7F3FC314805B0BDECCD
:106AC800028BBDE8F08F4A4621463046FFF791FF1A
:106AD8000022DFED2C5A9FED2C5A4A4540D0009BEE
:106AE800BAF1030F03EB8203D3ED007AFCEEE77AE9
:106AF80017EE903AC3F3074107EE901AF8EEE77ADB
:106B0800C3F3072187EE886A07EE901AF8EEE77A52
:106B1800DBB287EE887A07EE903AF8EEE77A3B68C0
:106B2800C7EE886A4FEA850005F1010103EB85038A
:106B38000DD183ED006A3B68E91C034483ED017ABB
:106B48003B680344C3ED026A0D460132C5E727EEF0
:106B5800287AA6EE257AA6EE857A83ED007AF3E701
:106B68006846A8EB020804F58064FFF799FC90E7F3
:106B78000020A3E72BEA3F0200007F43A245163F0F
:106B880016FCFFFF8716993ED578E93D2DE9F047B9
:106B980005680C68D3F80090D5E90203B4FBF0F45B
:106BA80016684FF00008B6FBF0F61B6A5C4303FB5F
:106BB8000646A64219D9002709EB880AAA6807EBF6
:106BC8000803BA420CD96B680122D95D286853467C
:106BD8002144FFF70EFF0AF1040A38B90137EDE73F
:106BE800EA689846126A1444E3E70020BDE8F08793
:106BF80010B50446006808B1FFF78FF9204610BDAC
:106C080038B50568044635B12846FFF749FC102118
:106C18002846FFF784F9204638BD10B5046801609E
:106C280044B12046FFF73CFC2046BDE81040102147
:106C3800FFF775B910BD13B56C460B460246D0E98F
:106C4800000184E8030093E8030082E8030094E865
:106C5800030083E8030002B010BD38B505460C46B2
:106C6800FFF7E9FFAB68A268AA60A360EB68E26877
:106C7800EA60E36038BD00001FB5D0E90223196A55
:106C880004688A4212D0236900F11004B3FBF1F3BF
:106C980053430362074B00900393074B6846214612
:106CA8000293FFF7DAFF6846FFF7DCFB204604B0E3
:106CB80010BD00BF3D733F02756B3F021FB5002337
:106CC800029321B1074B00910393074B02930146AE
:106CD8006846FFF7C2FF6846FFF7C4FB05B05DF8DA
:106CE80004FB00BF9D6B3F02896B3F028842F8B5E9
:106CF80004460D46164616D9904215D2A2F114063E
:106D0800751AA1F114072C44B7421CD02CB1314696
:106D1800204604F036FC337C2374304604F0B4FB80
:106D2800143E143CF0E70ED0B5420CD02CB12946E5
:106D3800204604F026FC2B7C2374284604F0A4FB90
:106D480014351434F0E7F8BD00232DE9F041C0E90B
:106D5800003383604F6804469F420E4624DD4FF09F
:106D6800140808FB07F002F011FE0546E0B1D4E96B
:106D7800001208FB0212FFF7B9FF206802F014FEA8
:106D88002560A760D6E9007308FB0378B84509D0E9
:106D98003946284604F00FFC3B7C143505F8043CC2
:106DA8001437F3E7736863602046BDE8F08138B5AF
:106DB8000D4600230446014683602846FFF73BFF43
:106DC800AB68A268A360AA60EB68E2682046EA6044
:106DD800E36038BD2DE9F04FD1B0DDF870919046F1
:106DE8009A4604460D46D9F818B000F0CFFD2D4B51
:106DF800CDE9080140932C4B40A943932B4B0BA89A
:106E08004293FFF7D4FF002340A80F9320AEFFF76B
:106E180029FB30AF40AB009348463346019710AA90
:106E280008A9FFF797FA034630BB94F8542094F862
:106E38003C3028461344009352465A9B10A9FFF74A
:106E480059FB0346C0B99DF87431494604935B9BCE
:106E58002046CDE9027340ABCDE90063DDE90823A4
:106E6800FFF706FD5B9B074693F840306BB9DBF8EC
:106E78000C300C4898473B460BA80793FFF7A5FD35
:106E8800079B184651B0BDE8F08F94F83C20304677
:106E9800904455F83810FFF7BBFB03460028E6D0AE
:106EA800EAE700BF496A3F02C56B3F02B16B3F0288
:106EB8002DE9F04F2DED068B0AEE103ADDB09DF866
:106EC800B03117460A931AEE103A9B694822804659
:106ED8008946384600210B9304F0B7FFC84B4CACE9
:106EE8004C93C84B21464F93C74B17A84E93FFF7B7
:106EF8005EFF002320461B93FFF7B4FA3CABCDE9B5
:106F080000431AEE100A2CAB1CAA10A9FFF722FAAC
:106F1800054600285DD19DF87030092B02D0032B5F
:106F280040F0138200F032FDD8F818301D9CCDE9EE
:106F38000E010893002C55D11846012100F002FEDD
:106F4800012304460993D8F84030D8F85820DB6864
:106F580016699A685869AD490AEE902AFEF7AAFFA1
:106F68009DED208A4FF0000A00280CBF012303235F
:106F7800DDED1F8AB8EEC88A55469FEDA59ADFED6C
:106F8800A59A0C93D9F810300793D9F810305345C7
:106F980040F28A81079B1AEE902AB3F5806F28BFCA
:106FA8004FF480639B4613A800235946FFF763FA02
:106FB800139BCBB913A8FFF773FA9749974800F0CA
:106FC800EBFC6FF0040524B1099B13B1204600F0D7
:106FD800BBFD17A8FFF7F9FC28465DB0BDEC068B92
:106FE800BDE8F08F0023ADE751465A464846FFF703
:106FF80000FD0021DFED8A3A9FED8A3ADFED8A5ADB
:107008009FED8A6A9FED8A5ADFED8A4A9FED8A4A88
:107018008B4500F03F81139B05F1010E03EB8103C3
:10702800D3ED007AFCEEE77A17EE903A1A0A0D9241
:107038000C9A6019032AC3F3074207EE102AC3F318
:10704800072207EE902ADAB206EE902A40F08B80EB
:10705800F4EE498AF1EE10FA04EB0E0C05F1030E7A
:1070680005F10205254426D1DFED742AB4EE628AC3
:10707800F1EE10FA1FD1F6B9B8EEC77AF8EEE77A52
:1070880037EE657A77EEE57AF8EEE66AFDEEE77AAE
:10709800BDEEC77A76EEE56A17EE902A17EE103A3B
:1070A800FDEEE67A03708CF8002017EE903A2B700C
:1070B80075460131ACE79DF83420DBB207EE902A23
:1070C800F8EEE76A07EE903AB8EEC77AF8EEE77A94
:1070D8002EBB87EE067AC6EE866AC7EE867AC7EEBC
:1070E800282AB8FE627A38EE077ABDEEC77A17EE1C
:1070F800103A86EEA87AB8FE477A38EE077ABDEEDF
:10710800C77A037017EE103A87EEA87AF8FE477A26
:1071180078EE277A8CF80030FDEEE77AC5E7022E84
:1071280018D1C7EE062A72EEC52A82EEA47AC6EEF8
:10713800862A9FED432A72EEC42AC2EE826AC7EEFF
:10714800862ADFED407A9FED402A72EEE72AC2EEEA
:10715800827AC4E7042E02BF37EE657A76EEE56AD6
:1071680077EEE57ABBE7F4EE498AF1EE10FA28D11A
:10717800DFED322AB4EE628AF1EE10FA21D106BBB5
:1071880049F2456217EE903A534317EE105A1A46E1
:1071980044F68B4303FB052241F62F5316EE905A13
:1071A80003FB05231B1407EE903AF8EEE77A77EE17
:1071B800E57AFDEEE77A17EE903A03F307030370DA
:1071C80076E7B8EEC77AF8EEE77AF8EEE66A002EC8
:1071D8003CD187EE067AC7EE867AC6EE866A67EEF7
:1071E800A97AE7EE237AE6EE837A87EEA87AF8FEA4
:1071F800477A78EE277AFDEEE77A17EE903ADEE7DF
:10720800496A3F02C56B3F02B16B3F022BEA3F025E
:107218008180803BA245163F16FCFFFFA7EA3F028C
:107228008716993ED578E93D0000004300007F436A
:10723800EC51F83EFA7E6A3ED578E93E000000C37C
:107248004260653E3BDFCF3E6666663E022E18D141
:10725800C7EE062A72EEC52A82EEA47AC7EE862AFF
:107268001FED092A72EEC42AC2EE827AC6EE862A79
:107278005FED0C6A1FED0C2A72EEE62AC2EE826AF6
:10728800ADE7042E02BF37EE657A77EEE57A76EE43
:10729800E56AA4E7079B13A8A3EB0B0307930AF57A
:1072A800806AFFF7FDF870E600F06EFB831C054668
:1072B8003FF489AE00F06AFB0E9B4FF47A72C01A55
:1072C8000F9B61EB0301C7E90A010023FEF7F4FBFA
:1072D8000A9B0146F861F3B11D4800F05DFB089B6D
:1072E800254623449A461B4EAA4511D015F9012B71
:1072F800209B9DED1F0AD31A07EE903AF8EEE77A25
:1073080027EE800A00F068FB304600F045FBEBE70B
:10731800114800F041FB00F039FB0A9BCDE9100150
:10732800CDE903733CAB02934CAB01932CAB024603
:10733800009340460B461AEE101AFFF799FA0B9B7A
:107348000546DB68054898473DE66FF0080540E6C6
:107358002AEB3F0258FA3F0229EA3F02496A3F02F4
:10736800F7B5154604461F460E4648220021284612
:1073780004F06BFDA36D00972A4631462046DB6872
:10738800FFF796FD03B0F0BD2DE9F04F2DED028B10
:107398009BB09046994605460C91002800F06A81FA
:1073A800C068846DD4E9027690F86440023CE4B287
:1073B800092C26D840F2292C2CFA04F4E40720D50D
:1073C80090F87140ECB9AD4CA7421AD1347DC4B1E4
:1073D80090F83C40012C14D1046CA668A84CA64235
:1073E8000FD1FFF7BDFF8246002840F03D814A4695
:1073F800414628461BB0BDEC028BBDE8F04FFFF7B5
:1074080059B800214822404604F01FFDEB6893F864
:107418003C2093F85430D318DA00104602930392B4
:10742800FEF779FD0021039A0746109004F00DFD40
:10743800029B981C8000FEF76EFD044648B10423A9
:107448000360029B08344360002120469A0004F040
:10745800FCFC00F09BFA0026CDE90D01039404968C
:10746800EB6893F83C20B24240F2B78072010A926E
:107478001A6C710102EB4613525810200992D3E995
:1074880001B20B92DA6808EE102A1A6906925A6954
:10749800DB6908920793FEF73CFD824620B1002382
:1074A8005A460121FEF7E7FF0022B3000593039B2C
:1074B800514618460F931192FFF7AFFB11A8FFF73B
:1074C8009FFB039A0F9B04321B680392099A47F8A3
:1074D80036303B1D43F83620049B5B440493EB682D
:1074E800049A99698A424FF0000213D9654800F05E
:1074F80053FA6FF0040A002C00F0B38054F8045CCF
:1075080004EB8505AC4200F0A480043D2846FFF753
:1075180077FBF7E70C9911A8119106991792129128
:107528000899CDE91313FFF7A7FB079B8246002BA9
:107538003BD0554B1B784BB95449554800F02CFAB1
:10754800544800F029FA01234F4A1370D5F804B0C3
:10755800059B5BF803305BB929680A9A0B6C91EDBF
:107568000E0A1344DA69D8689047059B4BF8030064
:107578006B68059A985868B3EB680268CDF8008084
:1075880093ED0E0AD2F804B018EE103A514657F8A7
:107598003620D84798B101463F4800F0FDF96FF012
:1075A800040A15A8FEF75EFFA5E7EB6818EE102A97
:1075B80093ED0E0A57F836100B9B9847EAE700F050
:1075C800E3F910F1020F8246EBD015A8FEF74AFF47
:1075D800013645E76FF00A0AE3E700F0D7F90D9B9B
:1075E8004FF47A72C01A0E9B61EB0301C8E90A01D5
:1075F8000023FEF761FA0146C8F81C00B9F1000F34
:1076080055D0264800F0C8F94FF0000B244EDFF89B
:1076180094A0029B9B4547D057F83B30B3B1002359
:1076280057F83B20916899420DD91268039302EBF1
:10763800830292ED000A00F0CFF9304600F0ACF971
:10764800039B0133ECE7504600F0A6F90BF1010B60
:10765800DFE754F8041CA4F1080002318900FEF7A2
:1076680060FC10A8FFF7C4FA50461BB0BDEC028BB3
:10767800BDE8F08F6FF0150AF6E700BF85753F0289
:107688000D723F0235EA3F02C0A607103EEB3F02EB
:1076980043EB3F0248EB3F02A7EA3F022AEB3F02D7
:1076A80058FA3F0229EA3F02094800F075F94B46AB
:1076B800424639462846FFF719F9824600287FF4E2
:1076C8001AAF4A4641462846FEF7F4FE824612E7BC
:1076D80016EB3F0213460A4601460148FFF754BE1F
:1076E80048A7071070B52DED048B684CAAB020464A
:1076F80001F094FA01F0CCFA05466548654B02683A
:10770800216803EB820319601121013292FBF1F128
:1077180001EB0111521A026004F0C6F803681B69F4
:10772800984700284EDD04F0BFF80A2201460BA84E
:1077380003F092FE0BA803F0AEFF012300220BA971
:107748000FA803F07FFF0BA913A8012203F09CFFE9
:1077580051490FA803F063FF50B1504918A803F02E
:10776800DEFE18A801F0E4F918A803F08DFE20E069
:107778004B490FA803F053FF0028EED149490FA841
:1077880003F04DFF00283BD147490FA803F047FFFE
:10779800002835D145490FA803F041FF002837D00C
:1077A800139804F00FFB51EC100BFEF735F9404B22
:1077B800186013A803F068FE0FA803F065FE0BA875
:1077C80003F062FE4822002118A804F03EFB0026C0
:1077D8001123384913A817931596FFF76FFA18A9BC
:1077E800324613A8FFF776FF0146C0B1324800F0D1
:1077F800D3F813A8FEF736FE2AB0BDEC048B70BD93
:1078080013A918A803F0D7FE18A801F0C1F9ABE72F
:107818002A490FA803F003FF0028C1D1C9E7D4ED16
:10782800008A9DED1B8A224B38EE888A93ED009AD8
:1078380079EE487A17EE900AFDF79EFDCDE908012A
:1078480018EE100AFDF798FD79EE687ACDE9060181
:1078580017EE900AFDF790FDCDE9040118EE900AA5
:10786800FDF78AFD6368CDE90201154A802100937E
:1078780014482B4602F0B4F804F016F8114903F046
:1078880092FD642002F00EF9B3E700BF84A7071049
:1078980044A707107CA6071064EC3F02D8E93F0212
:1078A800B9ED3F02C6FE3F02B2EB3F02B4EB3F0226
:1078B8005CA707102D6A3F02B6EB3F020AF03F02B1
:1078C800DAEB3F02C1A6071070B50024264D274EFB
:1078D8008CB02E602C72042000F032F9244B254A1B
:1078E800686004609A60C3E90044C5E90364012044
:1078F80001F034FFCDE90044029403F0D5FF1E4C9B
:1079080005462646694603A8FFF71EFA03A906A8F6
:10791800FFF71AFA194B06A946F8043B09A8FFF71E
:1079280013FA09AA3221304603F01EF909A8FFF715
:1079380039F806A8FFF736F8114B2562236003A82B
:10794800FFF730F80F4B236003F0AEFF4FF41651EA
:1079580003F098FF02F01CFE214603F01FF868466A
:10796800FFF720F80CB070BD48A707106CEC3F0279
:1079780070A607100000FFFF60A70710F8EB3F0292
:10798800ACFA3F0210EC3F020020704708B501F046
:10799800A7FC002108BD00000FB413B504AB53F8D1
:1079A800042B4FF480610B48019302F027F800285C
:1079B8000BDD03F079FF04460648FEF785FA2368D5
:1079C8000246DB6820460349984702B0BDE81040EC
:1079D80004B070478CA707102DE9F0472DED028BF6
:1079E800B0EE408A03F060FF824618EE100AFDF7F9
:1079F800C3FC02460B4604460D4606460F46FDF7F5
:107A0800ADFF38B146495046BDEC028BBDE8F047A2
:107A180003F0B6BC25F000494FF0FF322046494636
:107A2800404BFDF79BFF48B94FF0FF3220464946CF
:107A38003C4BFDF775FF08B93B49E4E7DFED3B7ABE
:107A4800B4EEE78AF1EE10FA01DD3949DBE7DFED44
:107A5800397AB4EEE78AF1EE10FAF6D4B5EEC08AB8
:107A6800F1EE10FA06D52D21504603F08DFC26467E
:107A780005F1004728A3D3E9002330463946FDF72E
:107A88001DFB0D460446FDF7A7FF0646FDF752FC11
:107A98000B46024629462046FDF70EFB0A220446FD
:107AA8000D465046314603F088FC5046224903F003
:107AB80067FC4FF007080026204F08F1FF3818F040
:107AC800FF0824D032463B4620462946FDF7ACFC49
:107AD80004460D46FDF758FFB0F1000915DA2D21CF
:107AE800504603F051FCC9F100010A22504603F048
:107AF80064FC4846FDF72EFC02460B462046294604
:107B0800FDF7DAFA04460D46D7E74946EDE7BDEC3E
:107B1800028BBDE8F08700BF8EEDB5A0F7C6A03E8A
:107B280044ED3F02FFFFEF7F48ED3F02FFFF7F4F2D
:107B38004CED3F02FFFF7FCF4EF23F020000244092
:107B480001F024BF04F042B901F02EBF12289ABFF9
:107B5800024B53F820000248704700BFD0ED3F02A7
:107B680050ED3F02C0EE807A9FED117AF8FE677AF9
:107B7800F4EEC77AF1EE10FA13B50FDB9FED0D7A2C
:107B8800F4EEC77AF1EE10FA08D8FDEEE77A17EEB0
:107B9800903A00200B44136002B010BD064B074A10
:107BA8000093046940F257130549A0470120F3E701
:107BB800000000CF0000004FB7EE3F021CEE3F026E
:107BC800A0EE3F0273B5D1ED037A92ED037A67EE2A
:107BD800877AF5EEC07AF1EE10FA1E460ADA0F4BF4
:107BE8000F4A0093046940F249130E49A047012047
:107BF80002B070BD17EE900AFDF7BEFB0446F068B0
:107C08000D46FDF7B9FB0B46024629462046FDF70F
:107C180035FD069BC3E900010020E9E7DDEE3F02E0
:107C28001CEE3F02A0EE3F022DE9F74F0446DDE9C6
:107C38000C7BC86815461E468A46FDF79DFB8046A4
:107C4800E8688946FDF798FB02460B4640464946D8
:107C5800FDF7EAFB80468946D6B1F068FDF78CFB54
:107C680002460B4640464946FDF726FA8046F86824
:107C780021F00049FDF780FB02460B464046494685
:107C8800FDF7FCFC11A3D3E90023FDF749FE50B131
:107C98003B462A4651462046CDF830B003B0BDE8F1
:107CA800F04FFFF78FBF064B2046009325694FF42E
:107CB8009E73044A0449A847012003B0BDE8F08F29
:107CC800F6EE3F021CEE3F02A0EE3F027B14AE47E9
:107CD800E17A943F2DE9F0411F46137886B0032BD3
:107CE80006468C460C9D0FD0092B26D0072B28D092
:107CF800374B384A0093046940F28F133649A0473E
:107D0800012006B0BDE8F081FF244FF00008BCF167
:107D1800010F92ED030A116918D1DFED300A3046E0
:107D280005AAFFF71FFF0028EBD1059B4345ACBF11
:107D38003B60C7F800802C60E3E77F246FF07F0882
:107D4800E5E747F6FF74DFF89880E0E7BCF1030F3A
:107D580021D1DFED220A304605AA8DED020A0391F2
:107D6800FFF700FF0028CCD1F1EE080A059B05AA11
:107D78004345ACBF3B60C7F800809DED020A304622
:107D88000399FFF7EFFE0028BBD1059BA342D4BFA0
:107D98002B602C60B5E7BCF1020F14D1FFEE000A8E
:107DA800304605AA8DED020A0391FFF7DBFE002895
:107DB800A7D1059BF7EE000A4345ACBF3B60C7F867
:107DC800008005AAD9E7C7F8008000202C6098E752
:107DD80018EF3F021CEE3F02A0EE3F020000000039
:107DE8000080FFFF002370B5561C8B420CDA5D1033
:107DF800445744F30304D4545C1CA14204D04457B0
:107E08002411F4540233F0E770BD000073B500226A
:107E180006460C46002351EC100B8DED000BFDF7C8
:107E28006BFD9DED000B054620B1002333602360F8
:107E380002B070BD204603F02BFF0022134B51EC1B
:107E4800100BFDF7F1FA41EC100B03F059FF51EC60
:107E5800100BFDF781FE4FF00042824275EB010CDA
:107E6800034601DA01F0D8FDA94208BF904202BFDB
:107E7800236801332360226808BF4FF080431F3214
:107E8800BCBF002323603360D2E700BF0000E0419D
:107E98004B1E1844B0FBF1F0484370470421C069F9
:107EA800FFF7F6BF2DE9F8430446894690461F467A
:107EB800FFF7F4FF0C2305460022A6695E438119EB
:107EC8008D4205D06B680C35013308BF0132F7E7E6
:107ED8000B2A0DD84FF0FF3340F806900020C5E973
:107EE8000138A3693B60A3690133A361BDE8F88346
:107EF8000120FBE77047406803685B69184703691E
:107F080053F82100704737B5D0E9014255690B464F
:107F1800216800954D681269C1682046A84703B0DA
:107F280030BD406803689B6818478268D2E904300E
:107F380003EBC0030C205B6800FB0130704710B5F1
:107F480004461821FDF7EBFF204610BD10B48468E5
:107F58001346406862695DF8044BFFF7A3BF000051
:107F6800C0E90232002330B5024DC0E90433C0E94C
:107F7800005130BD28EF3F02002904DB914202DAAC
:107F880053F8210070474FF0FF3070470B4610B58B
:107F980011461A680446131D1268FFF7EDFF011E0B
:107FA80005DB23682046BDE810405B6918470020C0
:107FB80010BD0B4610B511465A680446131D1268C9
:107FC800FFF7DAFF011E05DB23682046BDE81040F5
:107FD8005B691847002010BD0B4610B511469A681A
:107FE8000446131D1268FFF7C7FF011E05DB23684F
:107FF8002046BDE810405B691847002010BD0EB44C
:1080080003B503A951F8040B019100F005F802B07B
:108018005DF804EB03B070477047002908B501DA32
:1080280001F0FAFC03688B42FADD00EB810040683E
:1080380008BD10B5044611B90160204610BD896815
:1080480051F8042B40F8042B920003F0D7FEF4E714
:1080580010B5436B0BB901F0DFFC3C21BDE81040C3
:10806800184700002DE9F04FABB0DDE9348A04462B
:108078000E4624A851469946154600F073FA249BEB
:10808800023B022B01D901F0C7FC3368726B0B93DA
:108098007368CDE912220C930123B26BCDE910333A
:1080A800CDE91433CDE91623CDE91833CDE91C33D6
:1080B8000023316BCDE90D33CDE91A210F91F16A17
:1080C8001E92994203DB2046236C98470D90B8F125
:1080D800000F01D0D8F800804FF0000B7369CDF87D
:1080E80080B05B421F93F3692193B3682293F368CE
:1080F8002393002DC7D02B68D9F80020BAF1000FC0
:10810800C1D0DAF8001017AECDE902261BAF13AACA
:10811800CDE900320691CDE904870FAB0BAA1FA960
:108128000DA8FDF724FF08B323690BAA0993DAF811
:1081380000301FA9CDE90573D9F80030CDE90368EF
:10814800029313AB01932B680DA800930FABFDF7B7
:108158000EFF084BCDE9020B0193074B2046009315
:10816800064AF2230649099CA04701202BB0BDE826
:10817800F08F00BFF7EF3F020CF03F0254EF3F02D1
:10818800DDEF3F022DE9F0414B6904460D4688B00A
:108198000BB901F041FC1B4B1A6800F0D3F91A4BDC
:1081A80029461A680646204600F0CCF9174A29469F
:1081B80012680390204600F0C5F9154A294607467B
:1081C8001268204600F0C0F92D698046002DE0D0E5
:1081D800039B21462A6A05A800F0D5F9337A092BB2
:1081E8000ED19DF81C30092B0AD13246294620466B
:1081F800CDE9007805ABFFF735FF08B0BDE8F081A1
:108208000120FAE77CF13F0284F13F0278F13F0256
:1082180080F13F022DE9F04FD1F8108005460E4657
:108228009FB0B8F1000F01D101F0F6FB4B6905933F
:10823800002BF9D084687F4A236820469B6912681E
:108248009847074660B97C4B2C690093472328461A
:108258007A4A7B49A047012630461FB0BDE8F08F17
:108268002368784A314620469B69126898478146B8
:1082780020B9754B2C6900934A23E8E72368734AB1
:1082880031469B691268204698472368704A0490D3
:1082980031462046DB6912689847824620B96D4B03
:1082A8002C6900934F23D2E738789AF8003083423C
:1082B80013D02E69FFF74AFC04469AF80000FFF72E
:1082C80045FC654BCDE902400193644B2846009379
:1082D8005A4A51236249B047BDE749460CA8FFF7FF
:1082E800A8FE514612A8FFF7A4FE0C9A0CA8013A62
:1082F80011460792FFF791FE0126DDF848B0089075
:108308000BF1FF33194612A80693CDE90966FFF76A
:1083180084FE079A0B9011460CA8FFF77EFE069B79
:10832800C8F83400002BFFF67FAF002212A993454E
:1083380007D093420CBF01204868013246430431FC
:10834800F5E71946C8F8306012A8FFF766FE4FF047
:10835800FF33C8F82C30059BC8F838001978049BFF
:108368003A782846CDE90093CDE902A83B4600F0CB
:108378008BF8064600287FF46FAF3B78072B3FF455
:108388006AAF092B29D1394618A8ABF1020BFFF7C0
:1083980050FEBBF1020F3FF647AF08A8FDF71BFEE2
:1083A800834699F80030122B1ED1D9F8081019A865
:1083B80051F8043B9A001893059303F01FFD00221F
:1083C8000121059B0DF1600C93420CF1040C06DDB4
:1083D800DCF8000001324143F6E78346E1E728462E
:1083E800EB6B08F120029847BBF1000F18DC2368FB
:1083F800514620465B6A98472368394620465B6A9F
:108408009847236849465B6A20469847049B002B97
:108418003FF422AF236820465B6A049998471BE71C
:1084280059462846EB6B08F12C0298470028DED005
:10843800064611E77CF13F020EF13F0254EF3F027E
:10844800A0EE3F0284F13F021FF13F0278F13F02A4
:1084580080F13F0231F13F025DF13F026AF13F02D4
:1084680043F13F02002313B504460093034A044B2B
:10847800044900F03FF8204602B010BDC5893F020C
:1084880035893F0201883F022DE9F043012A85B072
:108498000646DDE90E840F461D46DDF8309027D0EC
:1084A80000220023CDE9022302ABCDE900834A462E
:1084B80029460D9BFFF7B8FBB8B92046211D9DED55
:1084C800020BFFF7A3FC2B6942466361D9F8103011
:1084D8003946A361D8F810303046E36104F10C0343
:1084E800009304F10803FFF7F5FB05B0BDE8F0833E
:1084F8000020FAE7C360002310B501600299C0E9C3
:108508000433C0E90112C0E90633036210BD70B537
:1085180008B901F081FA0029FBD00B68002A194636
:1085280051F8045B0CDB95420ADD51F82210002952
:1085380006DBBDE8704003EB82025168036D184703
:10854800002070BDFFF7E3BF10B508B901F064FA69
:108558000029FBD0BDE810404968036D01EB820299
:108568005168184710B5044609B1496819B900237C
:108578002360204610BD51F8042B40F8042B9200CC
:1085880003F03CFCF5E72DE9F0411D461B7A044653
:10859800122B084686B0114607D095E8070084E8F4
:1085A8000700204606B0BDE8F081036C9847D5E97E
:1085B8000087294606466846FFF7D4FF6B46002227
:1085C8000121009D954203F1040303DD186801327F
:1085D8004143F7E732464046FFF704FC0923C4E964
:1085E80000672372DDE70EB44FF0200C002300B5BE
:1085F8008CB00DAA52F8041BCDE904C3CDE90012D2
:108608000392016804AA322001F07EF80CB05DF8EC
:1086180004EB03B070472A220271002282604FF0F7
:108628007E52C260FA220261704710B50446017991
:10863800006801F087FB206801F08CFBB0FA80F03D
:10864800400910BD80ED030A704790ED030A70479A
:1086580038B504460D460179006801F073FB2068BF
:10866800294603689B689847206801F073FB08B1A6
:10867800FF2038BD01222179206801F060FB2068C5
:1086880003681B6998470028F2D0206803685B6973
:108698009847C0B2EDE710B50C461146FFF7D8FF72
:1086A800012303FA04F1084040B2003818BF012042
:1086B80010BD00220521FFF7EEBF022210B51146BA
:1086C8000446FFF7E8FF48B9022203212046FFF7D6
:1086D800E2FF00280CBF0020022010BD0120FCE7AB
:1086E80070B506460C4600F009FE05463046FFF711
:1086F800E4FF01280BD11CB9012001F0D3F9F5E7FB
:1087080000F0FCFD431BA342F6D9002002E0B0FABA
:1087180080F0400970BD70B504460E4615460179D3
:10872800006801F00FFB2068314603689B68984792
:108738002068294603689B689847206801F00AFB6F
:10874800B0FA80F0400970BD38B50C4602210546E4
:10875800FFF77EFF072C28BF072420F0700242EAAB
:1087680004122846BDE838400221D2B2FFF7D3BF31
:1087780038B50D4601210446FFF76AFF00F0F802FC
:10878800072D94BF2A4342F007022046BDE838402F
:108798000121FFF7C0BF73B50E46012411460546F7
:1087A8000192FFF755FF04FA06F30343284601999F
:1087B800DAB202B0BDE87040FFF7ADBF38B5054684
:1087C80000220121FFF7E7FF002202212846FFF7D8
:1087D800E2FF6624002203212846FFF75CFF40B928
:1087E8000120013C01F05EF914F0FF04F2D12046AB
:1087F80038BD2846BDE8384000220421FFF7CBBF2A
:1088080038B50C4602210546FFF722FF04F00304A1
:1088180000F0FC0040EA040202212846FFF77BFF33
:1088280002222846BDE838401146FFF7B4BF10B50C
:108838000446FFF7E5FF2046BDE810404FF47A7183
:10884800FFF74EBF38B50C4601210546FFF700FF7C
:10885800072C28BF072420F0380242EAC40201216D
:108868002846D2B2FFF757FF2846BDE83840002215
:108878000721FFF790BF37B50D4611460446019210
:10888800FFF7E6FE012303FA05F220EA020220467A
:108898000199D2B203B0BDE83040FFF73CBF0022D7
:1088A80010B511460446FFF776FF012001F0FAF8EB
:1088B80000222046BDE810401146FFF7DCBF38B55E
:1088C80004460D460179006801F03CFA2068294603
:1088D80003689B689847206801F03CFA08B10020BB
:1088E80038BD03222179206801F029FA206803683D
:1088F8001B6998470028F2D0206803685B6998478D
:108908000546206803685B6998470302206843EAC4
:10891800054503685B6998472843030248BF40F050
:108928007F40DDE71221FFF7CABF00002DE9F843B9
:10893800064688469146002400F0E0FC2546074696
:108948003046FFF7B6FE38B13046FFF7EBFF01348B
:10895800E4B2444505440FD000F0D0FCC01B4845A4
:1089680006D907480749FFF73EFE0020BDE8F8830F
:10897800012001F097F8E3E795FBF4F0F6E700BF74
:1089880094AE071088F13F0210B50446FFF7CEFFFA
:10899800A06010BD10B504462DED028BB0EE408AE4
:1089A800FFF7C4FFA368C31A07EE903AF8EEE77A18
:1089B80087EE887ABDEC028B84ED037A10BD38B55A
:1089C80004460D4611461A46FFF7B0FFA36815B9CD
:1089D8009842B8BF1846C31A07EE903A94ED030AB6
:1089E800F8EEE77A87EE800A38BD2DE9B8410160D4
:1089F80080461446FFF719FE18B144B90120BDE8B6
:108A0800B8814046FFF711FE0028F6D1F7E7404647
:108A1800FFF745FF07464046FFF7D0FE38400421E0
:108A2800C5B24046FFF70EFF072105404046FFF755
:108A38009FFE032105404046FFF786FE15210540AD
:108A48004046FFF705FE40F03000C2B2152140460F
:108A5800FFF761FE1C22072105404046FFF79BFEF9
:108A68001B22062105404046FFF705FF0540D8F8C0
:108A7800100001F017F84FF47A730A2201214046DA
:108A8800FFF79DFF00214046FFF7D1FE2840B6E7DB
:108A98000EB44FF0200C002300B58CB00DAA52F88C
:108AA800041BCDE904C3CDE900120392016804AAAE
:108AB8001E2000F029FE0CB05DF804EB03B07047EF
:108AC80007B502F0F5FF042200200DEB020100F0CB
:108AD80031FCDDED017AF4EE677AF1EE10FA0ED78B
:108AE8000F491048FFF7D4FF4FF07E53019302F06F
:108AF800DFFF042200200DEB020100F029FC0198A1
:108B0800FCF73AFC02460B4606480749FFF7C0FF48
:108B18009DED010A0548FFF795FD03B05DF804FBDC
:108B2800A2F13F0294AE0710CFF13F02F8AB071055
:108B380070B541F2883219211148FFF725FF32201C
:108B480000F0B0FF41F2883219210D48FFF71CFFF1
:108B580001220C4B19241A7000F0D0FB0A4B0B4D64
:108B6800074E18604FF47A73082200213046FFF749
:108B780026FF013CA5EC010AF4D1204670BD00BFD8
:108B8800F8AB071090AB07108CAB071094AB07102D
:108B980030B52DED028B83B0006803F013F951EC6A
:108BA800100BFCF739FF08EE100AFCF7E5FB174D30
:108BB800174C0B46024617492846FFF769FF4FF442
:108BC8007A720821B0EE480A2046FFF7E3FE02F069
:108BD8006FFF2046FFF739FD042200200DEB02014C
:108BE8008DED010A00F0B4FB2046FFF72EFD10EED4
:108BF800100AFCF7C1FB02460B4628460649FFF758
:108C080047FF002003B0BDEC028B30BD94AE0710C7
:108C1800F8AB0710EEF13F020CF23F0238B50446FC
:108C28001748FFF746FD50B31548FFF77BFE4FF492
:108C38007A730822012105461148FFF7C0FE114A40
:108C480011491078DFED117A431CDBB2192B137030
:108C580008BF002301EB800108BF137081ED000AF3
:108C68001923094AB2EC017A013B77EE877AF9D1E8
:108C7800F3EE096A87EEA67A84ED007A656038BD5E
:108C8800F8AB071091AB071094AB07100000000079
:108C980008B500F033FB024B1B68C01A08BD00BFC3
:108CA8008CAB071038B502F037FF0122014619488E
:108CB800FFF79BFE18B918491848FFF7E9FE03218A
:108CC8001448FFF741FD05211248FFF751FD052122
:108CD8001048FFF7B7FD00210E48FFF7A8FD02F086
:108CE800E7FEFFF7EDFE4FF4FA7000F0DBFE0A2412
:108CF800084D0848FFF7DDFC18B9012000F0D2FE46
:108D0800F7E72846013CFFF70DFE14F0FF04F0D109
:108D180038BD00BFF8AB07101BF23F0294AE071036
:108D28000148FFF778BC00BFF8AB071030B518242E
:108D38000B46444315490A1955780C5D1D700025EA
:108D4800022C1C7583F82D5008BF114CD56808BF3C
:108D580024689D61956852689D6008BF12195A6021
:108D6800182202FB00125169106903F1300484E8EB
:108D7800030093F83010012906D152691168496837
:108D8800D960526852681A6130BD00BF24A3071029
:108D98000CAC0710044B1B688B42A3BF034B03EBBF
:108DA800C10148680020704730AE0710E0AD0710D9
:108DB80047F6FF73074AA2F84030A2F88430A2F8B9
:108DC800C830A2F80C31044A938193839385938722
:108DD800704700BF90AC0710A0AD07100020FFF748
:108DE800D9BF7047F8B51B4B47F6FF751A681A4B81
:108DF80053F82230194A0B4414460021B2F90C00EA
:108E0800984202D104EB0110F8BDA84217D11822EC
:108E18005A43134E0D0104EB0110B118B25C4F78A0
:108E2800022A08BF0F4A077208BF12688F6849688C
:108E3800476008BF8918621961519381E4E70131DD
:108E4800042902F11002D9D10748FEF7A5FD002038
:108E5800DAE700BF34AC071010F93F02A0AD0710E5
:108E680024A307100CAC071050F23F020020FFF7B4
:108E7800B9BF000038B5154B47F6FF701A68144B98
:108E880053F82250134B0D441C460021B3F94020DF
:108E9800AA4204D1442303FB0144204638BD824240
:108EA80009D1442303FB014428462146FFF73EFF2E
:108EB800A4F84050F1E70131042903F14403E5D156
:108EC8000548FEF769FD0024E7E700BF34AC07104A
:108ED80010F93F0290AC071086F23F020020FFF71E
:108EE800C9BF000037B50A4611F00F031A491B48DD
:108EF80018BFC3F110030C6800681344E31A9842C2
:108F08001FD9174D2B68092B07D911461548FEF7AD
:108F180043FD0024204603B030BD104601210192D4
:108F2800FEF710FE019A044620B911460E48FEF7D6
:108F380033FDEFE72B685A1C2A600C4A42F82300DD
:108F4800E8E7A41A0F3C24F00F0410340C60204604
:108F5800002102F07AFFDDE704AE071000AE07102B
:108F680034AE0710BEF23F023BF33F0208AE0710D3
:108F78000020FFF7B7BF000010B50446024B03609E
:108F8800FEF7B8FF204610BD20F93F0210B5044691
:108F9800FFF7F2FF20461821FCF7C1FF204610BD5D
:108FA800F8B50E4E0D4633681746032B04D90C4806
:108FB800FEF7F2FC0120F8BDFFF794FF10B929462F
:108FC8000848F5E73368084C3B6044F8335004EB35
:108FD800C3040133606033600020ECE730AE071053
:108FE80071F33F02C9F33F02E0AD07100020FFF71D
:108FF800D7BF00002DE9F04F03464FF490711020C1
:10900800A1B098474A4B186038B94A48FEF7C4FCE3
:109018000125284621B0BDE8F08F0023464C474E75
:1090280020600DF1280800F590701A461946306046
:109038004046FEF795FF424B424A0A93424B0025B1
:109048005A63424A424FDA63424AC3F808801A64B4
:10905800414ADA64414A1A65414A1A610A221A6089
:10906800284610A9FFF762FE9DF85430022B06D15E
:10907800FA68119B134422689A4238BF236001356D
:109088000A2D07F11807EBD1226833689A4207D9ED
:109098003448FEF781FC01254046FFF76DFFB8E72D
:1090A8006D46314C6846FFF7DDF90FCD0FC40FCD83
:1090B8000FC4DFF8BC902D4E2B6800253746CB46F1
:1090C800DFF8B0A044F82039CAF8005024221BF871
:1090D800013B5343E35823B1002279691A48984762
:1090E80038610135032D07F12807EFD100239B468E
:1090F800CAF800302423144F19F8012B03FB02424D
:10910800956855B90BF1010BBBF1030F06F1280661
:10911800F2D10025CAF80050BEE731463846FFF7BD
:1091280047FEA847242305460028EBD0B4E700BF34
:109138000CAC0710FCF33F0200AE071004AE07109A
:1091480020F93F0295963F0238AC071051973F022D
:1091580024A3071045953F0225963F0295953F02A7
:10916800AF873F0222F43F0210AC071014A4071087
:109178000CF93F0234AC071008B50020FFF7D6FD04
:10918800002008BD08B50920FFF7D0FD002008BD64
:109198002DE9F84300244FF024080B4E0B4D0C4FDB
:1091A800DFF83090FFF704FE16F8013B294608FB6C
:1091B80003734846DB68984720B90134032C05F14E
:1091C8002805EFD1BDE8F8830CF93F0214A4071075
:1091D80010AC071038AC071070B50024094A0346D4
:1091E80010689847084B094E094D1C602B68A3422C
:1091F80005D956F8040BFEF7A7FC0134F6E7002062
:10920800286070BD0CAC071030AE071008AE071010
:1092180034AE0710064B1A68064B02F1200159605C
:10922800C3F8AC20C3F8C410C3F8DC20704700BFF3
:109238000CAC071024A3071009B504480068044BB8
:1092480003441B685B6C029309BD0000ECA2071085
:109258003000000009B504480068044B03441B684B
:109268009B6C029309BD0000ECA2071030000000BF
:1092780009B504480068044B03441B68DB6C02937F
:1092880009BD0000ECA207103000000009B5044831
:109298000068044B03441B685B6D029309BD000022
:1092A800ECA207103000000009B504480068044B20
:1092B80003441B685B68029309BD0000ECA2071019
:1092C8000000000009B504480068044B03441B680B
:1092D800DB68029309BD0000ECA207100000000043
:1092E80009B504480068044B03441B681B690293D2
:1092F80009BD0000ECA207100000000009B50448F1
:109308000068044B03441B685B69029309BD0000B5
:10931800ECA207100000000009B504480068044BDF
:1093280003441B689B6A029309BD0000ECA2071066
:109338000000000009B504480068044B03441B689A
:109348005B6C029309BD0000ECA20710000000004E
:1093580009B504480068044B03441B689B6C0293DE
:1093680009BD0000ECA207100000000009B5044880
:109378000068044B03441B68DB6D029309BD0000C1
:10938800ECA207100000000009B504480068044B6F
:1093980003441B689B69029309BD0000ECA20710F7
:1093A8001000000009B504480068044B03441B681A
:1093B800DB69029309BD0000ECA207101000000051
:1093C80009B504480068044B03441B681B6A0293F0
:1093D80009BD0000ECA207101000000009B5044800
:1093E8000068044B03441B685B6A029309BD0000D4
:1093F800ECA207101000000009B504480068044BEF
:1094080003441B689B6A029309BD0000ECA2071085
:109418001000000009B504480068044B03441B68A9
:10942800DB6A029309BD0000ECA2071010000000DF
:1094380009B504480068044B03441B681B6B02937E
:1094480009BD0000ECA207101000000009B504488F
:109458000068044B03441B681B6C029309BD0000A1
:10946800ECA207101000000009B504480068044B7E
:1094780003441B681B6D029309BD0000ECA2071092
:109488001000000009B504480068044B03441B6839
:109498005B69029309BD0000ECA207104C000000B4
:1094A80009B504480068044B03441B689B68029391
:1094B80009BD0000ECA207105000000009B50448DF
:1094C8000068044B03441B68DB68029309BD000075
:1094D800ECA207105000000009B504480068044BCE
:1094E80003441B689B68029309BD0000ECA20710A7
:1094F8002400000009B504480068044B03441B68B5
:10950800DB68029309BD0000ECA2071024000000EC
:1095180009B504480068044B03441B681B6902939F
:1095280009BD0000ECA207102400000009B504489A
:109538000068044B03441B685B69029309BD000083
:10954800ECA207102400000009B504480068044B89
:1095580003441B689B69029309BD0000ECA2071035
:109568002400000009B504480068044B03441B6844
:10957800DB69029309BD0000ECA20710240000007B
:1095880009B504480068044B03441B681B6A02932E
:1095980009BD0000ECA207102400000009B504482A
:1095A8000068044B03441B689B6A029309BD0000D2
:1095B800ECA207102400000009B504480068044B19
:1095C80003441B68DB6A029309BD0000ECA2071084
:1095D8002400000009B504480068044B03441B68D4
:1095E8001B6C029309BD0000ECA2071024000000C8
:1095F80009B504480068044B03441B681B680293C0
:1096080009BD0000ECA207103400000009B50448A9
:109618000068044B03441B685B68029309BD0000A3
:10962800ECA207103400000009B504480068044B98
:1096380003441B689B68029309BD0000ECA2071055
:109648003400000009B504480068044B03441B6853
:109658001B69029309BD0000ECA20710340000004A
:1096680009B504480068044B03441B685B6902930E
:1096780009BD0000ECA207103400000009B5044839
:109688000068044B03441B689B69029309BD0000F2
:10969800ECA207103400000009B504480068044B28
:1096A80003441B68DB69029309BD0000ECA20710A4
:1096B8003400000009B504480068044B03441B68E3
:1096C8001B6A029309BD0000ECA2071034000000D9
:1096D80009B504480068044B03441B689B6A02935D
:1096E80009BD0000ECA207103400000009B50448C9
:1096F8000068044B03441B685B6B029309BD0000C0
:10970800ECA207104800000009B504480068044BA3
:1097180003441B685B6D029309BD0000ECA20710AF
:109728004800000009B504480068044B03441B685E
:10973800DB6E029309BD0000ECA207104800000090
:1097480009B504480068044B03441B681B6F029367
:1097580009BD0000ECA207104800000009B5044844
:109768000068044B03441B685B68029309BD000052
:10977800ECA207100800000009B504480068044B73
:1097880003441B685B69029309BD0000ECA2071043
:109798000800000009B504480068044B03441B682E
:1097A800D3F88830029309BDECA207100800000026
:1097B80009B504480068044B03441B68D3F8943087
:1097C800029309BDECA207100800000009B504487F
:1097D8000068044B03441B689B68029309BD0000A2
:1097E800ECA207102C00000009B504480068044BDF
:1097F80003441B68DB6B029309BD0000ECA2071051
:109808002C00000009B504480068044B03441B6899
:109818005B68029309BD0000ECA207102800000055
:1098280009B504480068044B03441B689B6802930D
:1098380009BD0000ECA207102800000009B5044883
:109848000068044B03441B68DB68029309BD0000F1
:10985800ECA207102800000009B504480068044B72
:1098680003441B681B69029309BD0000ECA20710A2
:109878002800000009B504480068044B03441B682D
:109888005B69029309BD0000ECA2071028000000E4
:1098980009B504480068044B03441B689B6902939C
:1098A80009BD0000ECA207102800000009B5044813
:1098B8000068044B03441B68DB69029309BD000080
:1098C800ECA207102800000009B504480068044B02
:1098D80003441B681B6A029309BD0000ECA2071031
:1098E8002800000009B504480068044B03441B68BD
:1098F8001B6B029309BD0000ECA2071028000000B2
:1099080009B504480068044B03441B685B6B029369
:1099180009BD0000ECA207102800000009B50448A2
:109928000068044B03441B681B6C029309BD0000CC
:10993800ECA207102800000009B504480068044B91
:1099480003441B685B6C029309BD0000ECA207107E
:109958002800000009B504480068044B03441B684C
:109968005B6D029309BD0000ECA2071028000000FF
:1099780009B504480068044B03441B689B6D0293B7
:1099880009BD0000ECA207102800000009B5044832
:109998000068044B03441B681B68029309BD000060
:1099A800ECA207100400000009B504480068044B45
:1099B80003441B685B68029309BD0000ECA2071012
:1099C8000400000009B504480068044B03441B6800
:1099D8009B68029309BD0000ECA207100400000078
:1099E80009B504480068044B03441B68DB6902930B
:1099F80009BD0000ECA207100400000009B50448E6
:109A08000068044B03441B685B6A029309BD0000AD
:109A1800ECA207100400000009B504480068044BD4
:109A280003441B68DB6A029309BD0000ECA207101F
:109A38000400000009B504480068044B03441B688F
:109A48001B6B029309BD0000ECA207100400000084
:109A580009B504480068044B03441B68DB6B029398
:109A680009BD0000ECA207100400000009B5044875
:109A78000068044B03441B681B6C029309BD00007B
:109A8800ECA207100400000009B504480068044B64
:109A980003441B685B6C029309BD0000ECA207102D
:109AA800040000000021FFF767BE38B504680546CA
:109AB8007CB16368013B63605BB9236820469B689F
:109AC8009847A368013BA3601BB923682046DB685D
:109AD8009847284638BD10B543680446013B4360A3
:109AE80063B903689B689847A368013BA3602BB9D7
:109AF80023682046BDE81040DB68184710BD70B5E4
:109B08000446D0E9005305EB0316AE4204D02846BC
:109B180001F0BAFC1035F8E72068FFF745FF20464A
:109B280070BD0000002302480360FFF785BB00BF3B
:109B380038AE0710002240681146FFF78DBE00229C
:109B480040681146FFF7C0BE002240681146FFF783
:109B5800D7BE00224068FFF7C5BE0022406881F0EA
:109B68000101FFF7A3BE002340681A461946FFF714
:109B78008FBE002340681A461946FFF77BBE0022B5
:109B880040681146FFF74CBE002202214068FFF7EB
:109B980055BE002340681A46FFF734BE10B5282486
:109BA800074B22461846002102F04FF94FF0FF32CA
:109BB80042600422034B04805A60034A1A6010BDB5
:109BC80044AE07103CAE071054F93F02002240682B
:109BD8001146FFF779BE002240681146FFF790BE94
:109BE80000224068FFF77EBE0022406881F0010134
:109BF800FFF75CBE002340681A461946FFF748BEC7
:109C0800002340681A461946FFF734BE0022406810
:109C18001146FFF721BE002240681146FFF700BE3B
:109C2800002202214068FFF709BE002340681A4657
:109C3800FFF7E8BD0322024B5A60024A1A607047D8
:109C48006CAE071098F93F027047F8B506461546FE
:109C58000C468F18BC4206D0336830469B6814F80F
:109C6800011B9847F6E72846F8BD0022007CFFF75D
:109C7800A7BB0021007CFFF7B1BB0021007CFFF7E8
:109C8800BBBB0021007CFFF7C5BB0021007CFFF7B0
:109C9800CFBB10B504461421FCF741F9204610BD8E
:109CA8000022C0E90022182202800A7802714A685C
:109CB8008260CA68C2600A7A02610A6942617047B2
:109CC80038B5044615464FF47A730022C4E90123D7
:109CD800094B0846217423602946FFF7B7FBBF30BC
:109CE80008D16B69DB0705D56868FFF75DFEE86892
:109CF800FFF75AFE204638BDDCF93F0210B504468E
:109D080086B06846FFF7CCFF00226946207CFFF743
:109D1800ABFB06B010BD7FB58DF8041000214FF0E5
:109D2800640C5B1A18BF0123CDE904C101A9029292
:109D38008DF80C30FFF7E2FF07B05DF804FB012354
:109D4800FFF7E9BF0022007CFFF71EBB0022007C62
:109D5800FFF728BB0121FFF7F9BF0000FF21002210
:109D6800044B0120C3E9001264211A61C3E902010E
:109D7800704700BF74AE0710704710B5044618212D
:109D8800FCF7CDF8204610BDF0B5037D0E46062B36
:109D98004FF000048DB000F1040712D000F108055F
:109DA80015F8011D0A22304601F007FBAF420444B2
:109DB80019D0002CF4D02E21304601F0E5FA0444E5
:109DC800EEE72F236A4639460A208DF80040FFF750
:109DD80059FB6846FCF778F833680246694630460E
:109DE800DB689847044620460DB0F0BD10B5044620
:109DF800044B1122002140F8043B02F026F82046CB
:109E080010BD00BF08FA3F020346074A10B543F8E1
:109E1800042B01F1100251F8044B914243F8044B12
:109E2800F9D10A781A7010BD08FA3F0210B59DF8EA
:109E3800084044EA032343EA0242042342EA016158
:109E48004160037510BD000007B5064B0360CB7871
:109E580000938B784A780978FFF7E8FF03B05DF83C
:109E680004FB00BF08FA3F02012200F1100313F8B7
:109E7800101C1846012908D153F8041C02EB4102B2
:109E8800013A03F11003F2D17047022904BF53F8D5
:109E9800041C5218F4E70EB4F0B588B0102100AFD6
:109EA80007F1340555F8042B04462B4678187A60D8
:109EB800FD60FFF7A3FD0F287A681AD900F108039F
:109EC80023F007036E46ADEB030D411C2B46684695
:109ED800FD60FFF793FD021E04DD236869462046F6
:109EE8009B689847B5462037BD46BDE8F04003B0AB
:109EF80070470028F7D0236802469B68204607F180
:109F080010019847EFE738B50B68044603604D68C1
:109F180043689D4208D015B16B6801336B60606877
:109F280008B1FFF7D8FD656038BD07B503688DF83F
:109F3800071001229B680DF10701984703B05DF8EF
:109F480004FB0B461146002210B50446C0E9002266
:109F580083600BB9204610BDFFF7D5FFFAE7836889
:109F6800EBB11A78032A1AD8DFE802F00417021BAB
:109F78000520704702685B685268D05C2D2812D0B3
:109F8800A0F13003092B0ED974280ED066280CD006
:109F9800A0F16E03584258417047062070470020D0
:109FA800704704207047032070470220704710B59F
:109FB8000446FFF7D4FF02280ED0C31EDBB2012BE4
:109FC80014D82268A36850685B680A22BDE810406C
:109FD8000021184402F074BE2268A36852685B68C6
:109FE800D05CA0F174035842584110BD0020FCE732
:109FF80038B500230446C0E900330E48C4E902031B
:10A00800A9B10B78032B06D08BB9136858684B6835
:10A01800C35C6E2B07D013684D6858688B6828445A
:10A028005B1BA060E36011462046FFF76CFF2046EB
:10A0380038BD00BFD8E93F0238B500250B460446B5
:10A048001146C0E90055C0E90255C0E904554BB1B5
:10A058001A78012A06D103F11002DB688260436195
:10A06800FFF751FF204638BD10B54369044663B178
:10A078008068013BE0601030A0602061636113B12B
:10A08800FFF7F2FEA060012000E0184610BD10B5F1
:10A098007D210446FFF749FF01232046237110BDA7
:10A0A80008B50379012B02D0022B04D008BD2C215E
:10A0B800FFF73BFFFAE73A21FAE710B50446FFF746
:10A0C800EFFF20467B21FFF730FF00232046237156
:10A0D80010BD000013B504460191FFF7E1FF2368A6
:10A0E8002046DB68019A03499847012320462371DB
:10A0F80002B010BD14FA3F0213B504460191FFF7F0
:10A10800CFFF23682046DB68019A0349984701235B
:10A118002046237102B010BD17FA3F022DE9F0471F
:10A128000D469046222104462F46FFF7FEFEDFF833
:10A13800A490A8444745BA463DD017F8016B222E93
:10A1480006D05C2E04D0304601F048FE0028F1D13C
:10A158002368294620469B68AAEB050298475C219C
:10A168002046FFF7E2FE0D2E0AD8072E1CD9A6F1CD
:10A178000803052B18D8DFE803F00D0F1117131586
:10A18800222E01D05C2E0FD131462046FFF7CDFE9E
:10A198003D46CFE76221F8E77421F6E76E21F4E740
:10A1A8006621F2E77221F0E72368324649462046E5
:10A1B800DB689847ECE7BD4205D02368294620466E
:10A1C8009B687A1B984722212046FFF7AEFEBDE820
:10A1D800F08700BF1AFA3F0213B50446CDE9002103
:10A1E800FFF75EFFDDE900212046FFF797FF022316
:10A1F8002046237102B010BD13B50446CDE90021F5
:10A20800FFF74EFFDDE900212046FFF787FF012316
:10A218002046237102B010BD8842F8B504460D46A9
:10A22800164614D9904213D2A2F11006751AA1F15C
:10A2380010072C44B74218D01CB13146204601F013
:10A24800A0F9304601F020F9103E103CF2E70CD09E
:10A25800B5420AD01CB12946204601F092F9284699
:10A2680001F012F910351034F2E7F8BD70B50E1E82
:10A27800054611DD3001FFF789FB044658B1D5E9E1
:10A28800001201EB0212FFF7C7FF2868FFF78CFBEB
:10A2980001202C60AE6070BD0024F6E710B50446BE
:10A2A80080680368DB689847E3681844E06010BD7D
:10A2B8007047084611B10B685B68184770477047CC
:10A2C80070477047704738B504460D4600682E2120
:10A2D80001F00DFE2368C31A2B6023B1037803B184
:10A2E800013023682060184638BD10B50446102197
:10A2F800FBF715FE204610BD10B504460421FBF7F8
:10A308000EFE204610BD10B504460421FBF707FEDB
:10A31800204610BDFEF7ACBF08B5FBF7CBFDB0FA81
:10A3280080F0400908BD704710B50C4601F0BCFA32
:10A33800844205D101F0B8FABDE8104001F0A6BA90
:10A3480001F044FC844205D101F040FCBDE8104016
:10A3580001F03FBA2CB123682046BDE810405B6885
:10A36800184710BD0B6803604B68436013B15A6807
:10A3780001325A60704713B5044608460191FBF74D
:10A38800A3FD02462046019902B0BDE81040FFF740
:10A3980033BF13B5044608460191FBF795FD024605
:10A3A800204623680199DB6802B0BDE810401847D1
:10A3B80007B503688DF807100122DB680DF1070166
:10A3C800984703B05DF804FB2DE9F74F4FF0140AE6
:10A3D800D0E90084174645460AFB04F40093174B5E
:10A3E800A4105C43002C21DD66100AFB06F005EB87
:10A3F8000009B9F804B03A465F4528BF5A462858BC
:10A40800019101F086FD00284FF0010301990BD15D
:10A418005F4503D1009A13703446E3E7FCD9A61BC5
:10A4280009F11405013EF7E7F9DBF5E7A5EB0805A7
:10A438000248AD10684303B0BDE8F08FCDCCCCCC5A
:10A448007FB50369057E019103B3F9B1002600F1D8
:10A458000C04039603A901A8FFF735FF0146A8B12C
:10A468000DF10B032046039A8DF80B60FFF7ACFF44
:10A478009DF80B3053B12368142404FB0034B4F95D
:10A4880006300834002BA8BFDDB2E3E7284604B045
:10A4980070BD0EB4F0B58CB000AF07F1440555F8A7
:10A4A800042B04462B46202107F110007A60FD603A
:10A4B800FFF7A4FA1F287A681AD900F1080323F0D5
:10A4C80007036E46ADEB030D411C2B466846FD6045
:10A4D800FFF794FA021E04DD236869462046DB680C
:10A4E8009847B5463037BD46BDE8F04003B07047E1
:10A4F8000028F7D023680246DB68204607F11001E0
:10A508009847EFE710B5084CD4E88F3FDB0709D42C
:10A518002046FBF715FD28B12046FBF716FD03483A
:10A5280001F04AFC024810BD8CAE07106FAA3F022A
:10A538008CA4071010B5084CD4E88F3FDB0709D46A
:10A548002046FBF7FDFC28B12046FBF7FEFC03483C
:10A5580001F032FC024810BD90AE0710D7AA3F02A6
:10A5680090A4071038B500250446C0E90055C0E995
:10A5780004558560856140F8245FFEF75DFEFFF7AE
:10A58800C1FFE061FFF7D6FF25732062204638BD82
:10A5980010B50A4CD4E88F3FDB070CD42046FBF7F4
:10A5A800CFFC40B10648FFF7DDFF2046FBF7CDFCA6
:10A5B800044801F001FC024810BD00BF88AE071036
:10A5C80098AE0710B5B23F020023024A0249034879
:10A5D800FFF7B6B89DB03F0229B03F02A9AF3F02CE
:10A5E80000231A4619461846FFF7AAB837B5044695
:10A5F8008D686846FFF7B6FE6A4629462046FFF78B
:10A608001BFD01A8FFF751FA204603B030BD37B54E
:10A618000446CD686846FFF7A5FE6A4629462046E7
:10A62800FFF7E6FC01A8FFF740FA204603B030BD6B
:10A6380037B504460D696846FFF794FE6A46294611
:10A648002046FFF77EFC01A8FFF72FFA204603B04B
:10A6580030BD000070B58AB00D46014604A8FFF76A
:10A66800C5FF144E04A8FFF7FFFCE8B1684604A92B
:10A67800FFF7CDFF31460298FFF74EFE044610B1B2
:10A688002C1E18BF012401A8FFF70FFA002CE9D0EF
:10A69800684604A9FFF7CCFF6846FFF788FC2860E6
:10A6A80001A8FFF702FADDE705A8FFF7FEF90AB0EF
:10A6B80070BD00BF20FA3F0237B50C46134920464B
:10A6C8001546FBF7F7FB50B901F0EEF84FF41651B9
:10A6D80001F0D8F803B0BDE8304001F0E5B82046F5
:10A6E8000B49FBF7E7FB78B94FF4165301A9284645
:10A6F8000193FFF7AFFF01F069FA019901F066F8DD
:10A7080001F064FA03B030BD0020FBE725FA3F02F0
:10A718002CFA3F0270B51426D0E90053044606FB14
:10A728000356AE4205D005F10800FFF7F3FF1435D4
:10A73800F7E72068FFF738F9204670BD10B50446E2
:10A748000C30FFF7E7FF2046FFF7D9F9204610BD88
:10A7580010B50446034B40F8043BFFF7EFFF2046D3
:10A7680010BD00BFF8EB3F0210B50446FFF7F0FF3D
:10A7780020462421FBF7D3FB204610BD10B5044624
:10A78800024B0360FFF7E4FF204610BDC4FA3F0206
:10A7980010B50446FFF7F2FF20462421FBF7BFFB64
:10A7A800204610BD0A6810B502604A68426000225F
:10A7B800C0E9022202618C688A608460CC68CA6041
:10A7C800C4600C690A61046110BD0022C0E900225E
:10A7D800826010B50C680A6004604C684A60446086
:10A7E8008C688A60846010BD10B5044603681868D8
:10A7F800FEF74CFD204610BD2DE9F04F87B00393BE
:10A808001C4B80465B688946C3F3080316466BB940
:10A81800FFF7BEFE044600F12403406A0593FFF7E4
:10A8280079FD237B2BB105A8FFF7DEFF07B0BDE854
:10A83800F08F01235FFA89F92373D4E9005305EBFC
:10A84800830AAA4512D055F8047B3146381DFFF714
:10A85800F7FD8145F5D3039A3B680092D3F808B019
:10A868004A46334641463846D847EAE70023237329
:10A87800D9E700BF00ED00E02DE9F74F9B461A4BE2
:10A8880080465B688946C3F3080316466BB9FFF731
:10A898007FFE044600F12403406A0193FFF73AFD66
:10A8A800237B2BB101A8FFF79FFF03B0BDE8F08F12
:10A8B8000123F6B22373D4E9005305EB830A554507
:10A8C8000ED055F8047B5946381DFFF7B9FD86426E
:10A8D800F5D33B684A4641463846DB689847EEE779
:10A8E80000232373DEE700BF00ED00E02DE9F3410C
:10A8F800164B05465B680F46C3F308031BBBFFF7FF
:10A9080047FE044600F12403406A0193FFF702FD65
:10A91800D4E90063462406EB8308B04509D101A8B1
:10A92800FFF762FFA542B4BF0020012002B0BDE8D6
:10A93800F08156F8040B39460430FFF781FD844254
:10A94800A8BF0446E9E70020F0E700BF00ED00E0FB
:10A95800F8B5D0E901539D4204460E460DDB6F1C45
:10A96800002F006804DDB900FFF72CF818B9F8BD0E
:10A97800FFF71AF800202060A7602768626807EBD5
:10A9880085019200A2EB8502081D01F044FA47F800
:10A9980025606368012001336360E8E737B5044642
:10A9A80000F12403406A01930D46FFF7B3FCD4E994
:10A9B800003203EB8202934219460AD00968043335
:10A9C800A942F8D101A8FFF70FFF0025284603B0D8
:10A9D80030BD29462046FFF7BBFF05460028F1D0C9
:10A9E8006368012B01D1FFF7EFFD01A8FFF7FCFE1B
:10A9F800ECE70B4670B50446D0E9000200EB820292
:10AA080082420FD001461D6851F8046BAE4207D14F
:10AA1800521A01F000FA01206368013B636070BDBF
:10AA28000846EDE70020FAE71FB5044600F12403C5
:10AA3800406A01910393FFF76DFC204601A9FFF7D7
:10AA4800D8FF18B163680BB9FFF7CAFD03A8FFF771
:10AA5800CBFE04B010BD182370B50446D0E90456E7
:10AA680003FB0656AE4215D0204605F11001FFF74C
:10AA7800C0FF63680BB9FFF7B3FDE0692969036894
:10AA8800DB689847696919B1206A0368DB689847E9
:10AA98001835E7E71826D4E9045306FB0356AE42F7
:10AAA80004D0284600F0F0FC1835F8E7002363616D
:10AAB80070BD73B50446FFF793FD04F12403606A83
:10AAC8000193FFF727FC2046FFF7C5FF01A8FFF712
